{
  "_format": "hh-sol-artifact-1",
  "contractName": "Wager",
  "sourceName": "contracts/Wager.sol",
  "abi": [
    {
      "inputs": [
        {
          "internalType": "string",
          "name": "_proposition",
          "type": "string"
        },
        {
          "internalType": "string[]",
          "name": "_outcomes",
          "type": "string[]"
        },
        {
          "internalType": "uint256",
          "name": "_minimumBet",
          "type": "uint256"
        },
        {
          "internalType": "uint256",
          "name": "_timeoutDelay",
          "type": "uint256"
        },
        {
          "internalType": "uint8",
          "name": "_maxNumberOfBettors",
          "type": "uint8"
        },
        {
          "internalType": "uint256",
          "name": "_vigBasisPoints",
          "type": "uint256"
        }
      ],
      "stateMutability": "nonpayable",
      "type": "constructor"
    },
    {
      "inputs": [
        {
          "internalType": "uint256",
          "name": "outcome",
          "type": "uint256"
        }
      ],
      "name": "bet",
      "outputs": [],
      "stateMutability": "payable",
      "type": "function"
    },
    {
      "inputs": [
        {
          "internalType": "address",
          "name": "",
          "type": "address"
        },
        {
          "internalType": "uint256",
          "name": "",
          "type": "uint256"
        }
      ],
      "name": "betAmounts",
      "outputs": [
        {
          "internalType": "uint256",
          "name": "",
          "type": "uint256"
        }
      ],
      "stateMutability": "view",
      "type": "function"
    },
    {
      "inputs": [],
      "name": "cancel",
      "outputs": [],
      "stateMutability": "nonpayable",
      "type": "function"
    },
    {
      "inputs": [],
      "name": "claim",
      "outputs": [],
      "stateMutability": "nonpayable",
      "type": "function"
    },
    {
      "inputs": [],
      "name": "close",
      "outputs": [],
      "stateMutability": "nonpayable",
      "type": "function"
    },
    {
      "inputs": [],
      "name": "getOwnerCut",
      "outputs": [
        {
          "internalType": "uint256",
          "name": "",
          "type": "uint256"
        }
      ],
      "stateMutability": "view",
      "type": "function"
    },
    {
      "inputs": [],
      "name": "getWagerState",
      "outputs": [
        {
          "internalType": "uint8",
          "name": "",
          "type": "uint8"
        }
      ],
      "stateMutability": "view",
      "type": "function"
    },
    {
      "inputs": [],
      "name": "maxNumberOfBettors",
      "outputs": [
        {
          "internalType": "uint8",
          "name": "",
          "type": "uint8"
        }
      ],
      "stateMutability": "view",
      "type": "function"
    },
    {
      "inputs": [],
      "name": "minimumBet",
      "outputs": [
        {
          "internalType": "uint256",
          "name": "",
          "type": "uint256"
        }
      ],
      "stateMutability": "view",
      "type": "function"
    },
    {
      "inputs": [],
      "name": "numberOfBettors",
      "outputs": [
        {
          "internalType": "uint8",
          "name": "",
          "type": "uint8"
        }
      ],
      "stateMutability": "view",
      "type": "function"
    },
    {
      "inputs": [
        {
          "internalType": "uint256",
          "name": "",
          "type": "uint256"
        }
      ],
      "name": "outcomes",
      "outputs": [
        {
          "internalType": "string",
          "name": "",
          "type": "string"
        }
      ],
      "stateMutability": "view",
      "type": "function"
    },
    {
      "inputs": [],
      "name": "owner",
      "outputs": [
        {
          "internalType": "address",
          "name": "",
          "type": "address"
        }
      ],
      "stateMutability": "view",
      "type": "function"
    },
    {
      "inputs": [],
      "name": "proposition",
      "outputs": [
        {
          "internalType": "string",
          "name": "",
          "type": "string"
        }
      ],
      "stateMutability": "view",
      "type": "function"
    },
    {
      "inputs": [
        {
          "internalType": "uint256",
          "name": "outcome",
          "type": "uint256"
        }
      ],
      "name": "refund",
      "outputs": [],
      "stateMutability": "nonpayable",
      "type": "function"
    },
    {
      "inputs": [
        {
          "internalType": "uint256",
          "name": "_winningOutcome",
          "type": "uint256"
        }
      ],
      "name": "resolve",
      "outputs": [],
      "stateMutability": "nonpayable",
      "type": "function"
    },
    {
      "inputs": [],
      "name": "timeout",
      "outputs": [
        {
          "internalType": "uint256",
          "name": "",
          "type": "uint256"
        }
      ],
      "stateMutability": "view",
      "type": "function"
    },
    {
      "inputs": [],
      "name": "total",
      "outputs": [
        {
          "internalType": "uint256",
          "name": "",
          "type": "uint256"
        }
      ],
      "stateMutability": "view",
      "type": "function"
    },
    {
      "inputs": [
        {
          "internalType": "uint256",
          "name": "",
          "type": "uint256"
        }
      ],
      "name": "totalPerOutcome",
      "outputs": [
        {
          "internalType": "uint256",
          "name": "",
          "type": "uint256"
        }
      ],
      "stateMutability": "view",
      "type": "function"
    },
    {
      "inputs": [],
      "name": "vigBasisPoints",
      "outputs": [
        {
          "internalType": "uint256",
          "name": "",
          "type": "uint256"
        }
      ],
      "stateMutability": "view",
      "type": "function"
    },
    {
      "inputs": [],
      "name": "winningOutcome",
      "outputs": [
        {
          "internalType": "uint256",
          "name": "",
          "type": "uint256"
        }
      ],
      "stateMutability": "view",
      "type": "function"
    }
  ],
  "bytecode": "0x60806040526000600860006101000a81548160ff0219169083600381111562000051577f4e487b7100000000000000000000000000000000000000000000000000000000600052602160045260246000fd5b02179055503480156200006357600080fd5b506040516200283038038062002830833981810160405281019062000089919062000488565b60008411620000cf576040517f08c379a0000000000000000000000000000000000000000000000000000000008152600401620000c69062000577565b60405180910390fd5b336000806101000a81548173ffffffffffffffffffffffffffffffffffffffff021916908373ffffffffffffffffffffffffffffffffffffffff160217905550856001908051906020019062000127929190620001a6565b5084600290805190602001906200014092919062000237565b508360048190555081600560006101000a81548160ff021916908360ff1602179055506000600560016101000a81548160ff021916908360ff16021790555080600681905550824262000194919062000638565b6003819055505050505050506200086f565b828054620001b490620006e2565b90600052602060002090601f016020900481019282620001d8576000855562000224565b82601f10620001f357805160ff191683800117855562000224565b8280016001018555821562000224579182015b828111156200022357825182559160200191906001019062000206565b5b5090506200023391906200029e565b5090565b8280548282559060005260206000209081019282156200028b579160200282015b828111156200028a57825182908051906020019062000279929190620001a6565b509160200191906001019062000258565b5b5090506200029a9190620002bd565b5090565b5b80821115620002b95760008160009055506001016200029f565b5090565b5b80821115620002e15760008181620002d79190620002e5565b50600101620002be565b5090565b508054620002f390620006e2565b6000825580601f1062000307575062000328565b601f0160209004906000526020600020908101906200032791906200029e565b5b50565b6000620003426200033c84620005c2565b62000599565b905080838252602082019050828560208602820111156200036257600080fd5b60005b85811015620003b157815167ffffffffffffffff8111156200038657600080fd5b8086016200039589826200042d565b8552602085019450602084019350505060018101905062000365565b5050509392505050565b6000620003d2620003cc84620005f1565b62000599565b905082815260208101848484011115620003eb57600080fd5b620003f8848285620006ac565b509392505050565b600082601f8301126200041257600080fd5b8151620004248482602086016200032b565b91505092915050565b600082601f8301126200043f57600080fd5b815162000451848260208601620003bb565b91505092915050565b6000815190506200046b816200083b565b92915050565b600081519050620004828162000855565b92915050565b60008060008060008060c08789031215620004a257600080fd5b600087015167ffffffffffffffff811115620004bd57600080fd5b620004cb89828a016200042d565b965050602087015167ffffffffffffffff811115620004e957600080fd5b620004f789828a0162000400565b95505060406200050a89828a016200045a565b94505060606200051d89828a016200045a565b93505060806200053089828a0162000471565b92505060a06200054389828a016200045a565b9150509295509295509295565b60006200055f60228362000627565b91506200056c82620007ec565b604082019050919050565b60006020820190508181036000830152620005928162000550565b9050919050565b6000620005a5620005b8565b9050620005b3828262000718565b919050565b6000604051905090565b600067ffffffffffffffff821115620005e057620005df620007ac565b5b602082029050602081019050919050565b600067ffffffffffffffff8211156200060f576200060e620007ac565b5b6200061a82620007db565b9050602081019050919050565b600082825260208201905092915050565b6000620006458262000695565b9150620006528362000695565b9250827fffffffffffffffffffffffffffffffffffffffffffffffffffffffffffffffff038211156200068a57620006896200074e565b5b828201905092915050565b6000819050919050565b600060ff82169050919050565b60005b83811015620006cc578082015181840152602081019050620006af565b83811115620006dc576000848401525b50505050565b60006002820490506001821680620006fb57607f821691505b602082108114156200071257620007116200077d565b5b50919050565b6200072382620007db565b810181811067ffffffffffffffff82111715620007455762000744620007ac565b5b80604052505050565b7f4e487b7100000000000000000000000000000000000000000000000000000000600052601160045260246000fd5b7f4e487b7100000000000000000000000000000000000000000000000000000000600052602260045260246000fd5b7f4e487b7100000000000000000000000000000000000000000000000000000000600052604160045260246000fd5b6000601f19601f8301169050919050565b7f4d696e696d756d20626574206d757374206265206d6f7265207468616e207a6560008201527f726f000000000000000000000000000000000000000000000000000000000000602082015250565b620008468162000695565b81146200085257600080fd5b50565b62000860816200069f565b81146200086c57600080fd5b50565b611fb1806200087f6000396000f3fe60806040526004361061011f5760003560e01c80637365870b116100a0578063c38a8afd11610064578063c38a8afd14610392578063d05bf6c7146103bd578063ea8a1af0146103e8578063eed2a147146103ff578063f59cb33c1461043c5761011f565b80637365870b146102ca5780638da5cb5b146102e65780638ddf4137146103115780639b34ae031461033c578063ba002c61146103675761011f565b80633d03cf48116100e75780633d03cf481461021d57806343d726d6146102485780634e71d92d1461025f5780634f896d4f1461027657806370dea79a1461029f5761011f565b80630d5153f814610124578063205a5bd314610161578063278ecde11461019e5780632ddbd13a146101c757806336e5b088146101f2575b600080fd5b34801561013057600080fd5b5061014b60048036038101906101469190611537565b610467565b604051610158919061196a565b60405180910390f35b34801561016d57600080fd5b50610188600480360381019061018391906114fb565b61047f565b604051610195919061196a565b60405180910390f35b3480156101aa57600080fd5b506101c560048036038101906101c09190611537565b6104a4565b005b3480156101d357600080fd5b506101dc61065b565b6040516101e9919061196a565b60405180910390f35b3480156101fe57600080fd5b50610207610661565b6040516102149190611985565b60405180910390f35b34801561022957600080fd5b50610232610674565b60405161023f919061196a565b60405180910390f35b34801561025457600080fd5b5061025d61067a565b005b34801561026b57600080fd5b5061027461081d565b005b34801561028257600080fd5b5061029d60048036038101906102989190611537565b610a05565b005b3480156102ab57600080fd5b506102b4610c84565b6040516102c1919061196a565b60405180910390f35b6102e460048036038101906102df9190611537565b610c8a565b005b3480156102f257600080fd5b506102fb610fbe565b604051610308919061178d565b60405180910390f35b34801561031d57600080fd5b50610326610fe2565b604051610333919061196a565b60405180910390f35b34801561034857600080fd5b5061035161100c565b60405161035e919061196a565b60405180910390f35b34801561037357600080fd5b5061037c611012565b60405161038991906117a8565b60405180910390f35b34801561039e57600080fd5b506103a76110a0565b6040516103b4919061196a565b60405180910390f35b3480156103c957600080fd5b506103d26110a6565b6040516103df9190611985565b60405180910390f35b3480156103f457600080fd5b506103fd611262565b005b34801561040b57600080fd5b5061042660048036038101906104219190611537565b611412565b60405161043391906117a8565b60405180910390f35b34801561044857600080fd5b506104516114be565b60405161045e9190611985565b60405180910390f35b600a6020528060005260406000206000915090505481565b6009602052816000526040600020602052806000526040600020600091509150505481565b6003808111156104dd577f4e487b7100000000000000000000000000000000000000000000000000000000600052602160045260246000fd5b600860009054906101000a900460ff166003811115610525577f4e487b7100000000000000000000000000000000000000000000000000000000600052602160045260246000fd5b14610565576040517f08c379a000000000000000000000000000000000000000000000000000000000815260040161055c906117ea565b60405180910390fd5b6000600960003373ffffffffffffffffffffffffffffffffffffffff1673ffffffffffffffffffffffffffffffffffffffff16815260200190815260200160002060008381526020019081526020016000205490506000600960003373ffffffffffffffffffffffffffffffffffffffff1673ffffffffffffffffffffffffffffffffffffffff1681526020019081526020016000206000848152602001908152602001600020819055503373ffffffffffffffffffffffffffffffffffffffff166108fc829081150290604051600060405180830381858888f19350505050158015610656573d6000803e3d6000fd5b505050565b600b5481565b600560019054906101000a900460ff1681565b60065481565b600060038111156106b4577f4e487b7100000000000000000000000000000000000000000000000000000000600052602160045260246000fd5b600860009054906101000a900460ff1660038111156106fc577f4e487b7100000000000000000000000000000000000000000000000000000000600052602160045260246000fd5b1461073c576040517f08c379a0000000000000000000000000000000000000000000000000000000008152600401610733906118ca565b60405180910390fd5b60008054906101000a900473ffffffffffffffffffffffffffffffffffffffff1673ffffffffffffffffffffffffffffffffffffffff163373ffffffffffffffffffffffffffffffffffffffff16146107ca576040517f08c379a00000000000000000000000000000000000000000000000000000000081526004016107c19061182a565b60405180910390fd5b6001600860006101000a81548160ff02191690836003811115610816577f4e487b7100000000000000000000000000000000000000000000000000000000600052602160045260246000fd5b0217905550565b60026003811115610857577f4e487b7100000000000000000000000000000000000000000000000000000000600052602160045260246000fd5b600860009054906101000a900460ff16600381111561089f577f4e487b7100000000000000000000000000000000000000000000000000000000600052602160045260246000fd5b146108df576040517f08c379a00000000000000000000000000000000000000000000000000000000081526004016108d69061180a565b60405180910390fd5b6000600a6000600754815260200190815260200160002054600b54600960003373ffffffffffffffffffffffffffffffffffffffff1673ffffffffffffffffffffffffffffffffffffffff16815260200190815260200160002060006007548152602001908152602001600020546109579190611a7a565b6109619190611a49565b90506000600960003373ffffffffffffffffffffffffffffffffffffffff1673ffffffffffffffffffffffffffffffffffffffff16815260200190815260200160002060006007548152602001908152602001600020819055503373ffffffffffffffffffffffffffffffffffffffff166108fc829081150290604051600060405180830381858888f19350505050158015610a01573d6000803e3d6000fd5b5050565b60016003811115610a3f577f4e487b7100000000000000000000000000000000000000000000000000000000600052602160045260246000fd5b600860009054906101000a900460ff166003811115610a87577f4e487b7100000000000000000000000000000000000000000000000000000000600052602160045260246000fd5b14610ac7576040517f08c379a0000000000000000000000000000000000000000000000000000000008152600401610abe9061192a565b60405180910390fd5b60008054906101000a900473ffffffffffffffffffffffffffffffffffffffff1673ffffffffffffffffffffffffffffffffffffffff163373ffffffffffffffffffffffffffffffffffffffff1614610b55576040517f08c379a0000000000000000000000000000000000000000000000000000000008152600401610b4c9061188a565b60405180910390fd5b6002805490508110610b9c576040517f08c379a0000000000000000000000000000000000000000000000000000000008152600401610b93906117ca565b60405180910390fd5b806007819055506000610bad610fe2565b905080600b6000828254610bc19190611ad4565b9250508190555060008054906101000a900473ffffffffffffffffffffffffffffffffffffffff1673ffffffffffffffffffffffffffffffffffffffff166108fc829081150290604051600060405180830381858888f19350505050158015610c2e573d6000803e3d6000fd5b506002600860006101000a81548160ff02191690836003811115610c7b577f4e487b7100000000000000000000000000000000000000000000000000000000600052602160045260246000fd5b02179055505050565b60035481565b60006003811115610cc4577f4e487b7100000000000000000000000000000000000000000000000000000000600052602160045260246000fd5b600860009054906101000a900460ff166003811115610d0c577f4e487b7100000000000000000000000000000000000000000000000000000000600052602160045260246000fd5b14610d4c576040517f08c379a0000000000000000000000000000000000000000000000000000000008152600401610d439061186a565b60405180910390fd5b600560009054906101000a900460ff1660ff16600560019054906101000a900460ff1660ff1610610db2576040517f08c379a0000000000000000000000000000000000000000000000000000000008152600401610da9906118aa565b60405180910390fd5b60008054906101000a900473ffffffffffffffffffffffffffffffffffffffff1673ffffffffffffffffffffffffffffffffffffffff163373ffffffffffffffffffffffffffffffffffffffff161415610e41576040517f08c379a0000000000000000000000000000000000000000000000000000000008152600401610e38906118ea565b60405180910390fd5b600454341015610e86576040517f08c379a0000000000000000000000000000000000000000000000000000000008152600401610e7d9061194a565b60405180910390fd5b6002805490508110610ecd576040517f08c379a0000000000000000000000000000000000000000000000000000000008152600401610ec4906117ca565b60405180910390fd5b34600960003373ffffffffffffffffffffffffffffffffffffffff1673ffffffffffffffffffffffffffffffffffffffff16815260200190815260200160002060008381526020019081526020016000208190555034600a60008381526020019081526020016000206000828254610f4591906119bc565b9250508190555034600b6000828254610f5e91906119bc565b925050819055506001600560018282829054906101000a900460ff16610f849190611a12565b92506101000a81548160ff021916908360ff160217905550700100000000000000000000000000000000600b5410610fbb57600080fd5b50565b60008054906101000a900473ffffffffffffffffffffffffffffffffffffffff1681565b600080620186a0600654600b54610ff99190611a7a565b6110039190611a49565b90508091505090565b60075481565b6001805461101f90611b84565b80601f016020809104026020016040519081016040528092919081815260200182805461104b90611b84565b80156110985780601f1061106d57610100808354040283529160200191611098565b820191906000526020600020905b81548152906001019060200180831161107b57829003601f168201915b505050505081565b60045481565b60008060038111156110e1577f4e487b7100000000000000000000000000000000000000000000000000000000600052602160045260246000fd5b600860009054906101000a900460ff166003811115611129577f4e487b7100000000000000000000000000000000000000000000000000000000600052602160045260246000fd5b1415611138576000905061125f565b60016003811115611172577f4e487b7100000000000000000000000000000000000000000000000000000000600052602160045260246000fd5b600860009054906101000a900460ff1660038111156111ba577f4e487b7100000000000000000000000000000000000000000000000000000000600052602160045260246000fd5b14156111c9576001905061125f565b60026003811115611203577f4e487b7100000000000000000000000000000000000000000000000000000000600052602160045260246000fd5b600860009054906101000a900460ff16600381111561124b577f4e487b7100000000000000000000000000000000000000000000000000000000600052602160045260246000fd5b141561125a576002905061125f565b600390505b90565b6002600381111561129c577f4e487b7100000000000000000000000000000000000000000000000000000000600052602160045260246000fd5b600860009054906101000a900460ff1660038111156112e4577f4e487b7100000000000000000000000000000000000000000000000000000000600052602160045260246000fd5b1415611325576040517f08c379a000000000000000000000000000000000000000000000000000000000815260040161131c9061190a565b60405180910390fd5b60008054906101000a900473ffffffffffffffffffffffffffffffffffffffff1673ffffffffffffffffffffffffffffffffffffffff163373ffffffffffffffffffffffffffffffffffffffff161480611380575060035442115b6113bf576040517f08c379a00000000000000000000000000000000000000000000000000000000081526004016113b69061184a565b60405180910390fd5b6003600860006101000a81548160ff0219169083600381111561140b577f4e487b7100000000000000000000000000000000000000000000000000000000600052602160045260246000fd5b0217905550565b6002818154811061142257600080fd5b90600052602060002001600091509050805461143d90611b84565b80601f016020809104026020016040519081016040528092919081815260200182805461146990611b84565b80156114b65780601f1061148b576101008083540402835291602001916114b6565b820191906000526020600020905b81548152906001019060200180831161149957829003601f168201915b505050505081565b600560009054906101000a900460ff1681565b6000813590506114e081611f4d565b92915050565b6000813590506114f581611f64565b92915050565b6000806040838503121561150e57600080fd5b600061151c858286016114d1565b925050602061152d858286016114e6565b9150509250929050565b60006020828403121561154957600080fd5b6000611557848285016114e6565b91505092915050565b61156981611b08565b82525050565b600061157a826119a0565b61158481856119ab565b9350611594818560208601611b51565b61159d81611c43565b840191505092915050565b60006115b5600f836119ab565b91506115c082611c54565b602082019050919050565b60006115d86023836119ab565b91506115e382611c7d565b604082019050919050565b60006115fb6038836119ab565b915061160682611ccc565b604082019050919050565b600061161e6022836119ab565b915061162982611d1b565b604082019050919050565b60006116416033836119ab565b915061164c82611d6a565b604082019050919050565b60006116646012836119ab565b915061166f82611db9565b602082019050919050565b60006116876024836119ab565b915061169282611de2565b604082019050919050565b60006116aa6010836119ab565b91506116b582611e31565b602082019050919050565b60006116cd601b836119ab565b91506116d882611e5a565b602082019050919050565b60006116f0601c836119ab565b91506116fb82611e83565b602082019050919050565b60006117136026836119ab565b915061171e82611eac565b604082019050919050565b6000611736601f836119ab565b915061174182611efb565b602082019050919050565b60006117596020836119ab565b915061176482611f24565b602082019050919050565b61177881611b3a565b82525050565b61178781611b44565b82525050565b60006020820190506117a26000830184611560565b92915050565b600060208201905081810360008301526117c2818461156f565b905092915050565b600060208201905081810360008301526117e3816115a8565b9050919050565b60006020820190508181036000830152611803816115cb565b9050919050565b60006020820190508181036000830152611823816115ee565b9050919050565b6000602082019050818103600083015261184381611611565b9050919050565b6000602082019050818103600083015261186381611634565b9050919050565b6000602082019050818103600083015261188381611657565b9050919050565b600060208201905081810360008301526118a38161167a565b9050919050565b600060208201905081810360008301526118c38161169d565b9050919050565b600060208201905081810360008301526118e3816116c0565b9050919050565b60006020820190508181036000830152611903816116e3565b9050919050565b6000602082019050818103600083015261192381611706565b9050919050565b6000602082019050818103600083015261194381611729565b9050919050565b600060208201905081810360008301526119638161174c565b9050919050565b600060208201905061197f600083018461176f565b92915050565b600060208201905061199a600083018461177e565b92915050565b600081519050919050565b600082825260208201905092915050565b60006119c782611b3a565b91506119d283611b3a565b9250827fffffffffffffffffffffffffffffffffffffffffffffffffffffffffffffffff03821115611a0757611a06611bb6565b5b828201905092915050565b6000611a1d82611b44565b9150611a2883611b44565b92508260ff03821115611a3e57611a3d611bb6565b5b828201905092915050565b6000611a5482611b3a565b9150611a5f83611b3a565b925082611a6f57611a6e611be5565b5b828204905092915050565b6000611a8582611b3a565b9150611a9083611b3a565b9250817fffffffffffffffffffffffffffffffffffffffffffffffffffffffffffffffff0483118215151615611ac957611ac8611bb6565b5b828202905092915050565b6000611adf82611b3a565b9150611aea83611b3a565b925082821015611afd57611afc611bb6565b5b828203905092915050565b6000611b1382611b1a565b9050919050565b600073ffffffffffffffffffffffffffffffffffffffff82169050919050565b6000819050919050565b600060ff82169050919050565b60005b83811015611b6f578082015181840152602081019050611b54565b83811115611b7e576000848401525b50505050565b60006002820490506001821680611b9c57607f821691505b60208210811415611bb057611baf611c14565b5b50919050565b7f4e487b7100000000000000000000000000000000000000000000000000000000600052601160045260246000fd5b7f4e487b7100000000000000000000000000000000000000000000000000000000600052601260045260246000fd5b7f4e487b7100000000000000000000000000000000000000000000000000000000600052602260045260246000fd5b6000601f19601f8301169050919050565b7f496e76616c6964206f7574636f6d650000000000000000000000000000000000600082015250565b7f5761676572206d7573742062652063616e63656c656420666f7220612072656660008201527f756e640000000000000000000000000000000000000000000000000000000000602082015250565b7f5761676572206d757374206265207265736f6c766564202d20746865206f776e60008201527f65722073686f756c642063616c6c207265736f6c766528290000000000000000602082015250565b7f4f6e6c7920746865206f776e65722063616e20636c6f7365207468652077616760008201527f6572000000000000000000000000000000000000000000000000000000000000602082015250565b7f596f75206d75737420626520746865206f776e6572206f66207468697320776160008201527f676572206f7220706173742074696d656f757400000000000000000000000000602082015250565b7f5761676572206d757374206265206f70656e0000000000000000000000000000600082015250565b7f4f6e6c7920746865206f776e65722063616e207265736f6c766520746865207760008201527f6167657200000000000000000000000000000000000000000000000000000000602082015250565b7f546f6f206d616e7920626574746f727300000000000000000000000000000000600082015250565b7f5374617465206d757374206265206f70656e20746f20636c6f73650000000000600082015250565b7f5761676572206f776e65722063616e6e6f742070617274697061746500000000600082015250565b7f57616765722063616e6e6f742062652063616e63656c6564206f6e636520726560008201527f736f6c7665640000000000000000000000000000000000000000000000000000602082015250565b7f5761676572206d75737420626520636c6f73656420746f207265736f6c766500600082015250565b7f426574206d757374206265206174206c6561737420746865206d696e696d756d600082015250565b611f5681611b08565b8114611f6157600080fd5b50565b611f6d81611b3a565b8114611f7857600080fd5b5056fea2646970667358221220461dfbb2cdfd312aaadb537adbd7e3cca4c307b52fd60815ec9c07b2691ccf8664736f6c63430008040033",
  "linkReferences": {},
  "deployedLinkReferences": {}
}