{
  "_format": "hh-sol-artifact-1",
  "contractName": "WagerMultiWallet",
  "sourceName": "contracts/WagerMultiWallet.sol",
  "abi": [
    {
      "anonymous": false,
      "inputs": [
        {
          "indexed": true,
          "internalType": "uint256",
          "name": "index",
          "type": "uint256"
        }
      ],
      "name": "CanceledWager",
      "type": "event"
    },
    {
      "anonymous": false,
      "inputs": [
        {
          "indexed": true,
          "internalType": "uint256",
          "name": "index",
          "type": "uint256"
        }
      ],
      "name": "ClosedWager",
      "type": "event"
    },
    {
      "anonymous": false,
      "inputs": [
        {
          "indexed": true,
          "internalType": "uint256",
          "name": "index",
          "type": "uint256"
        },
        {
          "indexed": false,
          "internalType": "address",
          "name": "owner",
          "type": "address"
        }
      ],
      "name": "MintedWager",
      "type": "event"
    },
    {
      "anonymous": false,
      "inputs": [
        {
          "indexed": true,
          "internalType": "uint256",
          "name": "index",
          "type": "uint256"
        },
        {
          "indexed": false,
          "internalType": "uint256",
          "name": "amount",
          "type": "uint256"
        },
        {
          "indexed": false,
          "internalType": "uint8",
          "name": "outcome",
          "type": "uint8"
        }
      ],
      "name": "PlacedBet",
      "type": "event"
    },
    {
      "anonymous": false,
      "inputs": [
        {
          "indexed": true,
          "internalType": "uint256",
          "name": "index",
          "type": "uint256"
        },
        {
          "indexed": false,
          "internalType": "uint8",
          "name": "outcome",
          "type": "uint8"
        }
      ],
      "name": "ResolvedWager",
      "type": "event"
    },
    {
      "inputs": [
        {
          "internalType": "uint256",
          "name": "index",
          "type": "uint256"
        },
        {
          "internalType": "uint8",
          "name": "outcome",
          "type": "uint8"
        }
      ],
      "name": "bet",
      "outputs": [],
      "stateMutability": "payable",
      "type": "function"
    },
    {
      "inputs": [
        {
          "internalType": "uint256",
          "name": "index",
          "type": "uint256"
        }
      ],
      "name": "cancel",
      "outputs": [],
      "stateMutability": "nonpayable",
      "type": "function"
    },
    {
      "inputs": [
        {
          "internalType": "uint256",
          "name": "index",
          "type": "uint256"
        }
      ],
      "name": "claim",
      "outputs": [],
      "stateMutability": "nonpayable",
      "type": "function"
    },
    {
      "inputs": [
        {
          "internalType": "uint256",
          "name": "index",
          "type": "uint256"
        }
      ],
      "name": "close",
      "outputs": [],
      "stateMutability": "nonpayable",
      "type": "function"
    },
    {
      "inputs": [
        {
          "internalType": "uint256",
          "name": "index",
          "type": "uint256"
        }
      ],
      "name": "getOwnerCut",
      "outputs": [
        {
          "internalType": "uint256",
          "name": "",
          "type": "uint256"
        }
      ],
      "stateMutability": "view",
      "type": "function"
    },
    {
      "inputs": [
        {
          "internalType": "uint256",
          "name": "index",
          "type": "uint256"
        }
      ],
      "name": "getWager",
      "outputs": [
        {
          "internalType": "address",
          "name": "_owner",
          "type": "address"
        },
        {
          "internalType": "uint256",
          "name": "_endsAt",
          "type": "uint256"
        },
        {
          "internalType": "uint32",
          "name": "_vigBasisPoints",
          "type": "uint32"
        },
        {
          "internalType": "uint8",
          "name": "_winningOutcome",
          "type": "uint8"
        },
        {
          "internalType": "uint256",
          "name": "_total",
          "type": "uint256"
        },
        {
          "internalType": "uint8",
          "name": "_state",
          "type": "uint8"
        },
        {
          "internalType": "uint256[]",
          "name": "_totalsPerOutcome",
          "type": "uint256[]"
        },
        {
          "internalType": "string",
          "name": "_proposition",
          "type": "string"
        },
        {
          "internalType": "bytes32[]",
          "name": "_outcomes",
          "type": "bytes32[]"
        }
      ],
      "stateMutability": "view",
      "type": "function"
    },
    {
      "inputs": [
        {
          "internalType": "uint256",
          "name": "_endsAt",
          "type": "uint256"
        },
        {
          "internalType": "uint32",
          "name": "_vigBasisPoints",
          "type": "uint32"
        },
        {
          "internalType": "string",
          "name": "_proposition",
          "type": "string"
        },
        {
          "internalType": "bytes32[]",
          "name": "_outcomes",
          "type": "bytes32[]"
        }
      ],
      "name": "mintWager",
      "outputs": [
        {
          "internalType": "uint256",
          "name": "wagerId",
          "type": "uint256"
        }
      ],
      "stateMutability": "nonpayable",
      "type": "function"
    },
    {
      "inputs": [
        {
          "internalType": "uint256",
          "name": "index",
          "type": "uint256"
        },
        {
          "internalType": "uint8",
          "name": "outcome",
          "type": "uint8"
        }
      ],
      "name": "refund",
      "outputs": [],
      "stateMutability": "nonpayable",
      "type": "function"
    },
    {
      "inputs": [
        {
          "internalType": "uint256",
          "name": "index",
          "type": "uint256"
        },
        {
          "internalType": "uint8",
          "name": "_winningOutcome",
          "type": "uint8"
        }
      ],
      "name": "resolve",
      "outputs": [],
      "stateMutability": "nonpayable",
      "type": "function"
    }
  ],
  "bytecode": "0x6080604052600160005534801561001557600080fd5b50612629806100256000396000f3fe6080604052600436106100865760003560e01c8063620e080711610059578063620e0807146101435780637a2756f2146101805780639c0e1608146101c5578063c437a0cd146101ee578063e60741661461020a57610086565b80630aebeb4e1461008b5780631e23dffa146100b4578063379607f5146100f157806340e58ee51461011a575b600080fd5b34801561009757600080fd5b506100b260048036038101906100ad9190611737565b610233565b005b3480156100c057600080fd5b506100db60048036038101906100d69190611760565b610424565b6040516100e89190611dd2565b60405180910390f35b3480156100fd57600080fd5b5061011860048036038101906101139190611737565b61058f565b005b34801561012657600080fd5b50610141600480360381019061013c9190611737565b6107d9565b005b34801561014f57600080fd5b5061016a60048036038101906101659190611737565b6109d9565b6040516101779190611dd2565b60405180910390f35b34801561018c57600080fd5b506101a760048036038101906101a29190611737565b610a37565b6040516101bc99989796959493929190611b90565b60405180910390f35b3480156101d157600080fd5b506101ec60048036038101906101e791906117f3565b610d57565b005b610208600480360381019061020391906117f3565b611005565b005b34801561021657600080fd5b50610231600480360381019061022c91906117f3565b6112f6565b005b600060016000838152602001908152602001600020905060016004811115610284577f4e487b7100000000000000000000000000000000000000000000000000000000600052602160045260246000fd5b8160060160009054906101000a900460ff1660048111156102ce577f4e487b7100000000000000000000000000000000000000000000000000000000600052602160045260246000fd5b1461030e576040517f08c379a000000000000000000000000000000000000000000000000000000000815260040161030590611d32565b60405180910390fd5b8060000160009054906101000a900473ffffffffffffffffffffffffffffffffffffffff1673ffffffffffffffffffffffffffffffffffffffff163373ffffffffffffffffffffffffffffffffffffffff16146103a0576040517f08c379a000000000000000000000000000000000000000000000000000000000815260040161039790611c92565b60405180910390fd5b60028160060160006101000a81548160ff021916908360048111156103ee577f4e487b7100000000000000000000000000000000000000000000000000000000600052602160045260246000fd5b0217905550817f77ae8fc8e08d4c0aa22af4b1d8eb79ea25f8a25ef668dc106ccebf30ecc4fa7f60405160405180910390a25050565b6000806000808154809291906104399061215e565b9190505590506000600160008381526020019081526020016000209050338160000160006101000a81548173ffffffffffffffffffffffffffffffffffffffff021916908373ffffffffffffffffffffffffffffffffffffffff160217905550858160020160006101000a81548163ffffffff021916908363ffffffff16021790555086816001018190555060018160060160006101000a81548160ff02191690836004811115610513577f4e487b7100000000000000000000000000000000000000000000000000000000600052602160045260246000fd5b0217905550848160070190805190602001906105309291906114d8565b508381600801908051906020019061054992919061155e565b50817f5db77210a6c03744f0275ddaf8c6b7a11ef6cedbf37744f0e6088d2f816272dd3360405161057a9190611b75565b60405180910390a28192505050949350505050565b6000600160008381526020019081526020016000209050600360048111156105e0577f4e487b7100000000000000000000000000000000000000000000000000000000600052602160045260246000fd5b8160060160009054906101000a900460ff16600481111561062a577f4e487b7100000000000000000000000000000000000000000000000000000000600052602160045260246000fd5b1461066a576040517f08c379a000000000000000000000000000000000000000000000000000000000815260040161066190611c52565b60405180910390fd5b60008160040160008360020160049054906101000a900460ff1660ff1660ff1681526020019081526020016000205482600501548360030160003373ffffffffffffffffffffffffffffffffffffffff1673ffffffffffffffffffffffffffffffffffffffff16815260200190815260200160002060008560020160049054906101000a900460ff1660ff1660ff168152602001908152602001600020546107129190611fc8565b61071c9190611f97565b905060008260030160003373ffffffffffffffffffffffffffffffffffffffff1673ffffffffffffffffffffffffffffffffffffffff16815260200190815260200160002060008460020160049054906101000a900460ff1660ff1660ff168152602001908152602001600020819055503373ffffffffffffffffffffffffffffffffffffffff166108fc829081150290604051600060405180830381858888f193505050501580156107d3573d6000803e3d6000fd5b50505050565b60006001600083815260200190815260200160002090506003600481111561082a577f4e487b7100000000000000000000000000000000000000000000000000000000600052602160045260246000fd5b8160060160009054906101000a900460ff166004811115610874577f4e487b7100000000000000000000000000000000000000000000000000000000600052602160045260246000fd5b14156108b5576040517f08c379a00000000000000000000000000000000000000000000000000000000081526004016108ac90611d72565b60405180910390fd5b8060000160009054906101000a900473ffffffffffffffffffffffffffffffffffffffff1673ffffffffffffffffffffffffffffffffffffffff163373ffffffffffffffffffffffffffffffffffffffff1614806109165750806001015442115b610955576040517f08c379a000000000000000000000000000000000000000000000000000000000815260040161094c90611cb2565b60405180910390fd5b60048160060160006101000a81548160ff021916908360048111156109a3577f4e487b7100000000000000000000000000000000000000000000000000000000600052602160045260246000fd5b0217905550817fd74a4b8ade6c5363624a7b190a92fb6681083d175935eb10a52c42a666d47ad960405160405180910390a25050565b6000806001600084815260200190815260200160002090506000620186a08260020160009054906101000a900463ffffffff1663ffffffff168360050154610a219190611fc8565b610a2b9190611f97565b90508092505050919050565b60008060008060008060608060606000600160008c8152602001908152602001600020905060008160060160009054906101000a900460ff166004811115610aa8577f4e487b7100000000000000000000000000000000000000000000000000000000600052602160045260246000fd5b905060008160ff1611610af0576040517f08c379a0000000000000000000000000000000000000000000000000000000008152600401610ae790611cf2565b60405180910390fd5b6000826008018054905067ffffffffffffffff811115610b39577f4e487b7100000000000000000000000000000000000000000000000000000000600052604160045260246000fd5b604051908082528060200260200182016040528015610b675781602001602082028036833780820191505090505b50905060005b83600801805490508160ff161015610bf6578360040160008260ff1660ff16815260200190815260200160002054828260ff1681518110610bd7577f4e487b7100000000000000000000000000000000000000000000000000000000600052603260045260246000fd5b6020026020010181815250508080610bee906121a7565b915050610b6d565b8360000160009054906101000a900473ffffffffffffffffffffffffffffffffffffffff1684600101548560020160009054906101000a900463ffffffff168660020160049054906101000a900460ff16876005015487878a6007018b600801818054610c62906120fb565b80601f0160208091040260200160405190810160405280929190818152602001828054610c8e906120fb565b8015610cdb5780601f10610cb057610100808354040283529160200191610cdb565b820191906000526020600020905b815481529060010190602001808311610cbe57829003601f168201915b5050505050915080805480602002602001604051908101604052809291908181526020018280548015610d2d57602002820191906000526020600020905b815481526020019060010190808311610d19575b505050505090509c509c509c509c509c509c509c509c509c50505050509193959799909294969850565b600060016000848152602001908152602001600020905060026004811115610da8577f4e487b7100000000000000000000000000000000000000000000000000000000600052602160045260246000fd5b8160060160009054906101000a900460ff166004811115610df2577f4e487b7100000000000000000000000000000000000000000000000000000000600052602160045260246000fd5b14610e32576040517f08c379a0000000000000000000000000000000000000000000000000000000008152600401610e2990611db2565b60405180910390fd5b8060000160009054906101000a900473ffffffffffffffffffffffffffffffffffffffff1673ffffffffffffffffffffffffffffffffffffffff163373ffffffffffffffffffffffffffffffffffffffff1614610ec4576040517f08c379a0000000000000000000000000000000000000000000000000000000008152600401610ebb90611d12565b60405180910390fd5b818160020160046101000a81548160ff021916908360ff1602179055506000610eec846109d9565b905080826005016000828254610f029190612022565b925050819055508160000160009054906101000a900473ffffffffffffffffffffffffffffffffffffffff1673ffffffffffffffffffffffffffffffffffffffff166108fc829081150290604051600060405180830381858888f19350505050158015610f73573d6000803e3d6000fd5b5060038260060160006101000a81548160ff02191690836004811115610fc2577f4e487b7100000000000000000000000000000000000000000000000000000000600052602160045260246000fd5b0217905550837fec00c3adb9d9cddd06595eb235dd7ef84a66cb4ea21afb71e1826cc437104e6b84604051610ff79190611e16565b60405180910390a250505050565b600060016000848152602001908152602001600020905060016004811115611056577f4e487b7100000000000000000000000000000000000000000000000000000000600052602160045260246000fd5b8160060160009054906101000a900460ff1660048111156110a0577f4e487b7100000000000000000000000000000000000000000000000000000000600052602160045260246000fd5b146110e0576040517f08c379a00000000000000000000000000000000000000000000000000000000081526004016110d790611cd2565b60405180910390fd5b8060000160009054906101000a900473ffffffffffffffffffffffffffffffffffffffff1673ffffffffffffffffffffffffffffffffffffffff163373ffffffffffffffffffffffffffffffffffffffff161415611173576040517f08c379a000000000000000000000000000000000000000000000000000000000815260040161116a90611d52565b60405180910390fd5b600034116111b6576040517f08c379a00000000000000000000000000000000000000000000000000000000081526004016111ad90611c72565b60405180910390fd5b348160030160003373ffffffffffffffffffffffffffffffffffffffff1673ffffffffffffffffffffffffffffffffffffffff16815260200190815260200160002060008460ff1660ff16815260200190815260200160002081905550348160040160008460ff1660ff168152602001908152602001600020600082825461123e9190611f41565b92505081905550348160050160008282546112599190611f41565b925050819055507001000000000000000000000000000000008160050154106112b7576040517f08c379a00000000000000000000000000000000000000000000000000000000081526004016112ae90611d92565b60405180910390fd5b827f646190cb1c009f742a0c26d77841b40eb1b30f574608b81f46cac9ec7027f40a34846040516112e9929190611ded565b60405180910390a2505050565b6000600160008481526020019081526020016000209050600480811115611346577f4e487b7100000000000000000000000000000000000000000000000000000000600052602160045260246000fd5b8160060160009054906101000a900460ff166004811115611390577f4e487b7100000000000000000000000000000000000000000000000000000000600052602160045260246000fd5b146113d0576040517f08c379a00000000000000000000000000000000000000000000000000000000081526004016113c790611c32565b60405180910390fd5b60008160030160003373ffffffffffffffffffffffffffffffffffffffff1673ffffffffffffffffffffffffffffffffffffffff16815260200190815260200160002060008460ff1660ff16815260200190815260200160002054905060008260030160003373ffffffffffffffffffffffffffffffffffffffff1673ffffffffffffffffffffffffffffffffffffffff16815260200190815260200160002060008560ff1660ff168152602001908152602001600020819055503373ffffffffffffffffffffffffffffffffffffffff166108fc829081150290604051600060405180830381858888f193505050501580156114d1573d6000803e3d6000fd5b5050505050565b8280546114e4906120fb565b90600052602060002090601f016020900481019282611506576000855561154d565b82601f1061151f57805160ff191683800117855561154d565b8280016001018555821561154d579182015b8281111561154c578251825591602001919060010190611531565b5b50905061155a91906115ab565b5090565b82805482825590600052602060002090810192821561159a579160200282015b8281111561159957825182559160200191906001019061157e565b5b5090506115a791906115c8565b5090565b5b808211156115c45760008160009055506001016115ac565b5090565b5b808211156115e15760008160009055506001016115c9565b5090565b60006115f86115f384611e56565b611e31565b9050808382526020820190508285602086028201111561161757600080fd5b60005b85811015611647578161162d88826116b9565b84526020840193506020830192505060018101905061161a565b5050509392505050565b600061166461165f84611e82565b611e31565b90508281526020810184848401111561167c57600080fd5b6116878482856120b9565b509392505050565b600082601f8301126116a057600080fd5b81356116b08482602086016115e5565b91505092915050565b6000813590506116c881612597565b92915050565b600082601f8301126116df57600080fd5b81356116ef848260208601611651565b91505092915050565b600081359050611707816125ae565b92915050565b60008135905061171c816125c5565b92915050565b600081359050611731816125dc565b92915050565b60006020828403121561174957600080fd5b6000611757848285016116f8565b91505092915050565b6000806000806080858703121561177657600080fd5b6000611784878288016116f8565b94505060206117958782880161170d565b935050604085013567ffffffffffffffff8111156117b257600080fd5b6117be878288016116ce565b925050606085013567ffffffffffffffff8111156117db57600080fd5b6117e78782880161168f565b91505092959194509250565b6000806040838503121561180657600080fd5b6000611814858286016116f8565b925050602061182585828601611722565b9150509250929050565b600061183b838361192a565b60208301905092915050565b60006118538383611b39565b60208301905092915050565b61186881612056565b82525050565b600061187982611ed3565b6118838185611f0e565b935061188e83611eb3565b8060005b838110156118bf5781516118a6888261182f565b97506118b183611ef4565b925050600181019050611892565b5085935050505092915050565b60006118d782611ede565b6118e18185611f1f565b93506118ec83611ec3565b8060005b8381101561191d5781516119048882611847565b975061190f83611f01565b9250506001810190506118f0565b5085935050505092915050565b61193381612068565b82525050565b600061194482611ee9565b61194e8185611f30565b935061195e8185602086016120c8565b6119678161228d565b840191505092915050565b600061197f602383611f30565b915061198a8261229e565b604082019050919050565b60006119a2603883611f30565b91506119ad826122ed565b604082019050919050565b60006119c5601a83611f30565b91506119d08261233c565b602082019050919050565b60006119e8602283611f30565b91506119f382612365565b604082019050919050565b6000611a0b603383611f30565b9150611a16826123b4565b604082019050919050565b6000611a2e601283611f30565b9150611a3982612403565b602082019050919050565b6000611a51600d83611f30565b9150611a5c8261242c565b602082019050919050565b6000611a74602483611f30565b9150611a7f82612455565b604082019050919050565b6000611a97601b83611f30565b9150611aa2826124a4565b602082019050919050565b6000611aba601c83611f30565b9150611ac5826124cd565b602082019050919050565b6000611add602683611f30565b9150611ae8826124f6565b604082019050919050565b6000611b00600883611f30565b9150611b0b82612545565b602082019050919050565b6000611b23601f83611f30565b9150611b2e8261256e565b602082019050919050565b611b4281612092565b82525050565b611b5181612092565b82525050565b611b608161209c565b82525050565b611b6f816120ac565b82525050565b6000602082019050611b8a600083018461185f565b92915050565b600061012082019050611ba6600083018c61185f565b611bb3602083018b611b48565b611bc0604083018a611b57565b611bcd6060830189611b66565b611bda6080830188611b48565b611be760a0830187611b66565b81810360c0830152611bf981866118cc565b905081810360e0830152611c0d8185611939565b9050818103610100830152611c22818461186e565b90509a9950505050505050505050565b60006020820190508181036000830152611c4b81611972565b9050919050565b60006020820190508181036000830152611c6b81611995565b9050919050565b60006020820190508181036000830152611c8b816119b8565b9050919050565b60006020820190508181036000830152611cab816119db565b9050919050565b60006020820190508181036000830152611ccb816119fe565b9050919050565b60006020820190508181036000830152611ceb81611a21565b9050919050565b60006020820190508181036000830152611d0b81611a44565b9050919050565b60006020820190508181036000830152611d2b81611a67565b9050919050565b60006020820190508181036000830152611d4b81611a8a565b9050919050565b60006020820190508181036000830152611d6b81611aad565b9050919050565b60006020820190508181036000830152611d8b81611ad0565b9050919050565b60006020820190508181036000830152611dab81611af3565b9050919050565b60006020820190508181036000830152611dcb81611b16565b9050919050565b6000602082019050611de76000830184611b48565b92915050565b6000604082019050611e026000830185611b48565b611e0f6020830184611b66565b9392505050565b6000602082019050611e2b6000830184611b66565b92915050565b6000611e3b611e4c565b9050611e47828261212d565b919050565b6000604051905090565b600067ffffffffffffffff821115611e7157611e7061225e565b5b602082029050602081019050919050565b600067ffffffffffffffff821115611e9d57611e9c61225e565b5b611ea68261228d565b9050602081019050919050565b6000819050602082019050919050565b6000819050602082019050919050565b600081519050919050565b600081519050919050565b600081519050919050565b6000602082019050919050565b6000602082019050919050565b600082825260208201905092915050565b600082825260208201905092915050565b600082825260208201905092915050565b6000611f4c82612092565b9150611f5783612092565b9250827fffffffffffffffffffffffffffffffffffffffffffffffffffffffffffffffff03821115611f8c57611f8b6121d1565b5b828201905092915050565b6000611fa282612092565b9150611fad83612092565b925082611fbd57611fbc612200565b5b828204905092915050565b6000611fd382612092565b9150611fde83612092565b9250817fffffffffffffffffffffffffffffffffffffffffffffffffffffffffffffffff0483118215151615612017576120166121d1565b5b828202905092915050565b600061202d82612092565b915061203883612092565b92508282101561204b5761204a6121d1565b5b828203905092915050565b600061206182612072565b9050919050565b6000819050919050565b600073ffffffffffffffffffffffffffffffffffffffff82169050919050565b6000819050919050565b600063ffffffff82169050919050565b600060ff82169050919050565b82818337600083830152505050565b60005b838110156120e65780820151818401526020810190506120cb565b838111156120f5576000848401525b50505050565b6000600282049050600182168061211357607f821691505b602082108114156121275761212661222f565b5b50919050565b6121368261228d565b810181811067ffffffffffffffff821117156121555761215461225e565b5b80604052505050565b600061216982612092565b91507fffffffffffffffffffffffffffffffffffffffffffffffffffffffffffffffff82141561219c5761219b6121d1565b5b600182019050919050565b60006121b2826120ac565b915060ff8214156121c6576121c56121d1565b5b600182019050919050565b7f4e487b7100000000000000000000000000000000000000000000000000000000600052601160045260246000fd5b7f4e487b7100000000000000000000000000000000000000000000000000000000600052601260045260246000fd5b7f4e487b7100000000000000000000000000000000000000000000000000000000600052602260045260246000fd5b7f4e487b7100000000000000000000000000000000000000000000000000000000600052604160045260246000fd5b6000601f19601f8301169050919050565b7f5761676572206d7573742062652063616e63656c656420666f7220612072656660008201527f756e640000000000000000000000000000000000000000000000000000000000602082015250565b7f5761676572206d757374206265207265736f6c766564202d20746865206f776e60008201527f65722073686f756c642063616c6c207265736f6c766528290000000000000000602082015250565b7f426574206d7573742062652067726561746572207468616e2030000000000000600082015250565b7f4f6e6c7920746865206f776e65722063616e20636c6f7365207468652077616760008201527f6572000000000000000000000000000000000000000000000000000000000000602082015250565b7f596f75206d75737420626520746865206f776e6572206f66207468697320776160008201527f676572206f7220706173742074696d656f757400000000000000000000000000602082015250565b7f5761676572206d757374206265206f70656e0000000000000000000000000000600082015250565b7f496e76616c696420776167657200000000000000000000000000000000000000600082015250565b7f4f6e6c7920746865206f776e65722063616e207265736f6c766520746865207760008201527f6167657200000000000000000000000000000000000000000000000000000000602082015250565b7f5374617465206d757374206265206f70656e20746f20636c6f73650000000000600082015250565b7f5761676572206f776e65722063616e6e6f742070617274697061746500000000600082015250565b7f57616765722063616e6e6f742062652063616e63656c6564206f6e636520726560008201527f736f6c7665640000000000000000000000000000000000000000000000000000602082015250565b7f6f766572666c6f77000000000000000000000000000000000000000000000000600082015250565b7f5761676572206d75737420626520636c6f73656420746f207265736f6c766500600082015250565b6125a081612068565b81146125ab57600080fd5b50565b6125b781612092565b81146125c257600080fd5b50565b6125ce8161209c565b81146125d957600080fd5b50565b6125e5816120ac565b81146125f057600080fd5b5056fea26469706673582212206b7b5f755c3d78abd3826d845d4f08bbb3a81803b7179f279b8f28495e63475464736f6c63430008040033",
  "linkReferences": {},
  "deployedLinkReferences": {}
}